:020000040800F2
:100000008005002001010008931B00086916000804
:10001000911B0008DB050008E51C0008000000003B
:10002000000000000000000000000000971B000816
:10003000F505000800000000951B0008991B00084A
:100040001B0100081B0100081B0100081B01000820
:100050001B0100081B0100081B0100081B01000810
:100060001B0100081B0100081B0100081B01000800
:100070001B0100081B0100081B0100081B010008F0
:10008000DD050008E90500081B0100081B01000848
:100090001B0100081B0100081B0100081B010008D0
:1000A0001B0100081B0100081B0100081B010008C0
:1000B0001B0100081B0100081B0100081B010008B0
:1000C0001B0100081B0100081B0100081B010008A0
:1000D0001B0100081B0100081B0100081B01000890
:1000E0001B0100081B0100081B010008DFF80CD0F1
:1000F00000F052FA00480047251D00088005002046
:100100000648804706480047FEE7FEE7FEE7FEE7B1
:10011000FEE7FEE7FEE7FEE7FEE7FEE7E51B000879
:10012000ED000008202A04DB203A21FA02F0002129
:10013000704721FA02F3D040C2F1200291400843F7
:1001400019467047D2B201E000F8012B491EFBD2DC
:1001500070470022F6E710B513460A4604461946D2
:10016000FFF7F0FF204610BDF0B480EA0102D40F83
:100170004200B2EB410F02D20246084611464A0045
:1001800042D0C30DDDB2C1F3C752AD1A202D35DA0E
:10019000C1F3160141F4000204B15242C5F1200638
:1001A00002FA06F12A411044B3EBD05F23D0C4B168
:1001B000012DA0EBC35009DCF0BC4FF0004202EA75
:1001C000C352DBB200F5000000F05AB9400000F164
:1001D000807000EBC350A0F1807040EAD1704900FC
:1001E00009E0490841EAC071A0EBC35000F50000E6
:1001F000400800EBC350F0BC00F039B96142012265
:1002000002EB4101001BF6E7F0BC704781F00041B2
:10021000AAE780F00040A7E780EA010210B502F0EB
:100220000043400022D04A001FD0010E01EB1261B2
:10023000C0F35600C2F3560240F4000042F400023C
:10024000A0FB022000047F39140400D0401C50EAB7
:10025000124001D44000491EC2B20C0604EBD0107B
:10026000401C4008802A02D003E0002010BD20F08E
:100270000100002900DA0020184310BD30B480EAE4
:10028000010202F0004530F0004221F0004013D09E
:1002900090B1C30DD40DC2F31601C0F31600E41AD9
:1002A00041F4000140F400027D34914201D3641C0A
:1002B00000E04900002C02DA30BC002070474FF407
:1002C00000000023914201D3891A034340084FEAFA
:1002D0004101F7D151B1914202D14FF0004105E007
:1002E00002D24FF0010101E06FF0010103EBC450B5
:1002F000284430BC00F0BBB82DE9FE4F81EA03046E
:1003000004F0004421F0004100944FF0000B23F072
:10031000004350EA01045ED052EA03045BD0C3F309
:100320000A54C1F30A552C44A4F2F3340194A0FBFF
:100330000254C1F3130141F48011C3F3130343F4D6
:10034000801301FB024400FB034E840A970A44EA2F
:10035000815447EA8357A4FB076802958D0A05FB81
:1003600007854FEA932C04FB0C542705029D4FEAA6
:10037000065847EA1637B5EB08056EEB070C870EF3
:10038000920E47EA811742EA8312A7FB0201B6EBFD
:100390000B0164EB00042B0D43EA0C335E1844EBB5
:1003A0001C50DA465146E7FB0201C5F313044FEA3D
:1003B0000B3343EA14534FEA0432019C43EA060329
:1003C000A4F10C040294009CCDE900B400F095F86F
:1003D00003B0BDE8F08F00200146F9E7C10F80EAC5
:1003E000E0700844CA079623002100F049B80EB512
:1003F000C10F80EAE0700844CA07002140F233438D
:100400008DE80E000A460B4600F077F803B000BDF9
:1004100000F0004230F000400AD0C10D01F56071DB
:10042000C0F3160042EA0151C20840071143704769
:1004300000200146704701F0004330B421F0004134
:1004400050EA010206D00A0DA2F56072C1F3130151
:10045000002A02DC30BC00207047440F44EAC1048B
:10046000C100E01830BC00EBC250AFF3008000299F
:10047000A8BF7047401C490008BF20F0010070472A
:1004800010B4B0FA80FC00FA0CF050EA010404BF8A
:1004900010BC704749B1CCF1200421FA04F411FAE0
:1004A0000CF118BF012121430843A3EB0C01CB1D24
:1004B0004FEA00614FEA102042BF002010BC704795
:1004C00000EBC35010440029A4BF10BC7047401C6F
:1004D000490008BF20F0010010BC704710B5141E81
:1004E00073F1000408DA401C41F1000192185B41ED
:1004F0001A4301D120F0010010BD2DE9F04D9246C4
:100500009B4611B1B1FA81F202E0B0FA80F22032DA
:10051000904600F053F804460F4640EA0A0041EACC
:100520000B0153465A46084313D0114653EA0100C3
:1005300019D0C8F140025046FFF7F4FD05460E46BB
:1005400050465946424600F039F8084305D001208C
:1005500004E020463946BDE8F08D0020054346EA18
:10056000E0762C4337430A986305E40AA0EB0800C1
:100570000022FD0A44EA47540A3002D50020014611
:10058000E9E7010510196941DDE9084500196941EC
:10059000BDE8F04DA2E70000064C074D06E0E0681C
:1005A00040F0010394E8070098471034AC42F6D3BA
:1005B000FFF7A0FD3420000854200008202A04DBA7
:1005C000203A00FA02F1002070479140C2F1200366
:1005D00020FA03F3194390407047FEE7014800F00A
:1005E0000BB80000F8000020014800F005B800003A
:1005F0003C010020704770472DE9F05FC16B0C682B
:1006000001680B68D0F840C0042202FA0CF2494D90
:10061000DFF824A1494E4A4FDFF828B1DFF828E17E
:1006200022422CD05A072AD50A68920603D40A68B7
:1006300022F004020A600168A94201D1042219E0F3
:10064000514501D1402215E0B14202D14FF4806200
:1006500010E0B94202D14FF480420BE0594502D17B
:100660004FF4802206E0714502D14FF4800201E090
:100670004FF080622F4908394A60C16A3BE04FF071
:10068000020808FA0CF818EA040F4FF000094FF0BE
:10069000010235D05FEA837832D50B689B0605D41A
:1006A0000B6823F00A030B6080F821200168A9423F
:1006B00001D1022219E0514501D1202215E0B142B9
:1006C00002D14FF4007210E0B94202D14FF400524F
:1006D0000BE0594502D14FF4003206E0714502D1DA
:1006E0004FF4001201E04FF00072124908394A60DD
:1006F00080F82090816A00291AD0BDE8F05F084791
:10070000082505FA0CF5254212D01B0710D50B68F9
:1007100023F00E030B6090F84010C36B02FA01F156
:100720005960826380F8212080F82090016BE2E715
:10073000BDE8F09F080002401C000240300002406B
:1007400044000240580002406C00024030B528B31B
:1007500008C8134914221944B1FBF2F18900C1639E
:1007600010498163022141771A6843F6F0718A4388
:10077000D0E900142143D0E902452C432143046908
:1007800021434469214384692143114319600021B5
:100790004163012242770177084630BD012030BD18
:1007A000F8FFFDBF0000024070B5044600F004F9F8
:1007B0000546601C02D004480078044400F0FCF8B0
:1007C000401BA042FAD370BD540000202DE9F84F21
:1007D000DFF8B891002409F1040A0AF1040B23465A
:1007E0000F270BF1040EC9E00125A5402A40AA42BB
:1007F0007DD1674ED1F804C0ACEB0608B44532D0C9
:1008000014DCBCF1030F3AD009DCBCF1000F2AD094
:10081000BCF1010F1CD0BCF1020F31D11DE0BCF1C5
:10082000110F17D0BCF1120F2AD119E0B8F5881FAB
:1008300019D006DCB8F5803F15D0B8F5801F1FD160
:1008400011E0B8F5001F0ED0B8F5041F18D10AE06A
:10085000CB6815E0CB681B1D12E0CB6808330FE0B6
:10086000CB680C330CE08B682BB1012B4FF00803E5
:1008700003D0456104E0042302E0056100E00023A9
:10088000FF2A01D8064601E000F104064FEA84057C
:1008900001D9A5F12005D6F8008007FA05FC28EA61
:1008A0000C0803FA05F548EA0508C6F800804D680B
:1008B000ED0062D5374DAE6946F00106AE61AD6917
:1008C00024F0030605F001050095334D06EB050CF9
:1008D000DCF80850A607360F07FA06F825EA0805DF
:1008E000DFF8B880404503D14FF0000817E044E03E
:1008F000DFF8AC80404502D14FF001080FE0DFF88F
:10090000A480404502D14FF0020808E0DFF898804B
:10091000404502D14FF0030801E04FF0040808FA07
:1009200006F848EA0508CCF808804D68D9F8006058
:10093000ED034D4601D5164300E096432E604D6809
:10094000DAF80060AD03554601D5164300E0964342
:100950002E604D68DBF80060ED025D4601D5164360
:1009600000E096432E604D68DEF80060AD027546EB
:1009700001D5164300E096432E60641C0D682A469C
:10098000E5407FF431AFBDE8F88F0000000401407E
:10099000000011100010024000000140000801405A
:1009A000000C014000100140001401400AB1016137
:1009B00070470904FBE700000148806870470000A9
:1009C0005400002070B504001BD094F83D000025B1
:1009D00020B984F83C50204600F056FA242084F8D0
:1009E0003D002068016821F00101016000F0D8FBA2
:1009F0004D4A6168914201D84C4900E04C49884217
:100A000001D2012070BD4B492368B0FBF1F15E6853
:100A100026F03F060E435E606368934206D94FF4AA
:100A2000967359434FF47A73B1FBF3F12368491C71
:100A30001E6A26F03F06314319626168914210D860
:100A40004900401EB0FBF1F2521CC2F30B02042A13
:100A500001D2042022E0B0FBF1F0401CC0F30B00F7
:100A60001CE0A368F3B301EBC10202EB0116421EC6
:100A7000B2FBF6F2521C42F48042120549D093B305
:100A800001EBC10202EB0111401EB0FBF1F0401C72
:100A9000C0F30B0040F4804040F400402168CA6974
:100AA0004CF6FF739A431043C861D4E90701084329
:100AB00021680A6822F0C00210430860D4E90301EB
:100AC00001432068826848F2FF339A4311438160F2
:100AD000D4E9050108432168CA6822F0FF021043E7
:100AE000C86001E00EE016E02068016841F00101F5
:100AF00001602564202084F83D00256384F83E5081
:100B0000002070BD01EB4106421EB2FBF6F2521C02
:100B1000B3E70120C2E701EB4101401EB0FBF1F059
:100B2000401CC0F30B00B7E7A086010080841E00C4
:100B300000093D0040420F002DE9FF4F83B09A4667
:100B4000DDE9119793460446DDF84080FFF734FF56
:100B5000054694F83D0020286FD1192301227B49D6
:100B60002046009500F07CFE0028F5D194F83C006A
:100B7000012862D0012084F83C0020680168C90780
:100B800003D1016841F0010101602168086820F487
:100B900000600860222084F83D00402084F83E0078
:100BA00000262664C4F82480A4F82A90608D20854D
:100BB0006748E062CDE9007553465A4620460499DD
:100BC00000F06AFD00287DD1208DDFF8888168B1B2
:100BD000012814D0022820D02068016841F48061E7
:100BE00001602068416980690090A0E02068416947
:100BF00081690091016841F40071016097E020680B
:100C0000016821F48061016072B6206841698169E0
:100C10000091016841F400710CE02168086840F41B
:100C20000060086072B620684169816900910168BE
:100C300021F48061016062B679E084E003284FD836
:100C400001280BD002283B464FF0000241462046C7
:100C500000950ED000F004FEA0BB0FE02A463946F6
:100C6000204600F07CFE68BB20680069616A08705D
:100C700054E000F0F5FD28BB72B61AE02068016868
:100C800021F48061016072B620680069616A0870B1
:100C9000606A401C6062208D401E2085608D401E71
:100CA00060853B46002241462046009500F0D8FD75
:100CB00040B92068016841F4007101602068006952
:100CC000616A00E012E00870606A401C6062218D79
:100CD000491E2185618D491E618562B621681BE030
:100CE0002A463946204600F03AFE18B1012007B0E6
:100CF000BDE8F08F20680069616A0870606A401C76
:100D00006062218D491E2185618D491E61852168A2
:100D10004A69D24352070AD409690170606A401CCB
:100D20006062208D401E2085608D401E6085208D74
:100D3000002883D1202084F83D0084F83E6084F8A8
:100D40003C600020D3E70220D1E700000200100041
:100D50000000FFFF040001002DE9FF4F83B09A4619
:100D6000DDE9119793460446DDF84080FFF724FE45
:100D7000054694F83D0020287FD1192301224049DF
:100D80002046009500F06CFD002876D194F83C00D8
:100D9000012872D0012084F83C0020680168C9074E
:100DA00003D1016841F0010101602068016821F46C
:100DB00000610160212084F83D00402084F83E005D
:100DC00000262664C4F82480A4F82A90608D20852B
:100DD0002C48E062CDE9007553465A4620460499F6
:100DE00000F0CEFC70B930E02A463946204600F0CB
:100DF000E9FD58B1206C042804D12068016841F451
:100E000000710160012007B0BDE8F08F606A2168C1
:100E100000780861606A401C6062218D491E89B2B9
:100E20002185628D521E628522685369DB435B0710
:100E30000BD469B100781061606A401C6062208D3B
:100E4000401E2085608D401E6085208D0028CBD1FE
:100E50002A463946204600F0DDFC0028CAD154F865
:100E60003D0B016841F400710160202004F81E0967
:100E7000E67766770020C6E7FFE70220C3E70000B9
:100E8000020010000000FFFFF0B585B00024064608
:100E9000009401940294039400682449884242D14A
:100EA000234DA86940F00800A861A869694600F0D0
:100EB00008000490C02000901220019003200390AD
:100EC0001C48FFF783FCE86940F40010E861E8691A
:100ED0001A4D00F4001004901748802701C5102017
:100EE00091C5400145F810098000C5E90504134883
:100EF000EC61FFF72BFC08B1FFF77DFB75636E62B9
:100F00000D480F4D1430C5E90004C5E902472C61B6
:100F10006C61AC612846EC61FFF718FC08B1FFF783
:100F20006AFBB5636E6205B0F0BD0000005400407E
:100F300000100240000C01406C000240F80000204C
:100F40003C010020024881680278114481607047AA
:100F500054000020074810B5016841F010010160FD
:100F6000032000F075F8002000F006F800F024F8E7
:100F7000002010BD0020024070B50D4D04464FF416
:100F80007A712878B1FBF0F00A490968B1FBF0F0FA
:100F900000F0ECFA48B9102C07D200222146501E6E
:100FA00000F036F800206C6070BD012070BD0000BC
:100FB00054000020600000200C4808B5816941F011
:100FC00001018161816901F001010091C16941F074
:100FD0008051C161C06900F08050009004484168B0
:100FE00021F0E06141F00071416008BD0010024055
:100FF00000000140002809DB00F01F0201219140A0
:101000004009800000F1E020C0F8001170470000A6
:10101000F0B40E4B1B680C46C3F30223C3F1070563
:10102000042D00D90425191D072901D2002300E051
:10103000DB1E012606FA05F1491E214099409E401B
:10104000761E16403143F0BC00F04DBE0CED00E0C2
:10105000064900F0070208684FF6FF03184040EA0F
:101060000220034A10430860704700000CED00E0C6
:101070000000FA052DE9F0470F46050061D0434E08
:10108000306800F00700B84209D2306820F007004D
:1010900038433060306800F00700B84251D128680A
:1010A0003B4C810712D5400703D5606840F4E060EF
:1010B00060602878000703D5606840F46050606085
:1010C0006068A96820F0F000084360602878C007D5
:1010D00028D06868012810D02168022810D089071C
:1010E00000292EDA616821F0030101436160FFF7F6
:1010F00063FC804641F288390DE021688903EFE7FF
:101100008901EDE7FFF758FCA0EB0801494502D93A
:101110000320BDE8F0876068696800F00C00B0EB60
:10112000810FEFD1306800F00700B8420BD930686A
:1011300020F0070038433060306800F00700B84204
:1011400001D00120E5E72878400705D56068E96807
:1011500020F4E060084360602878000706D56068E6
:10116000296920F4605040EAC100606000F038F85E
:101170006168084AC1F30311515CC8400649086020
:1011800006480068FFF7F8FE0020C2E70020024092
:10119000001002401C2000086000002058000020C1
:1011A0000448054900684968044AC1F30221515CBA
:1011B000C840704760000020001002402C2000084A
:1011C0000448054900684968044AC1F3C221515CDA
:1011D000C840704760000020001002402C2000082A
:1011E00012A185B00FC98DE80F0014A0144A006841
:1011F00004905168134801F00C03042B10D0082B05
:101200000ED1C1F38343C9031DF803000AD5516809
:1012100004AAC1F34041515C0A4A5043B0FBF1F0CB
:1012200005B0704708494843FAE700000203040587
:10123000060708090A0B0C0D0E0F10100102000022
:101240000010024000127A0000093D002DE9F84F1D
:10125000040070D02078C04DC00749D06868C0F342
:101260008100012807D06868C0F38100022809D1F5
:101270006868C00306D52868800339D560680028EF
:10128000E7D035E06068B0F5803F0BD010B1B0F525
:10129000A02F11D0286820F480302860286820F41E
:1012A000802002E0286840F480302860606890B1B7
:1012B000FFF782FB06460AE0286840F48020286099
:1012C000F0E700BFFFF778FB801B642873D828681D
:1012D0008003F7D50CE0FFF76FFB064605E000BF83
:1012E000FFF76AFB801B6428F0D828688003F7D4D6
:1012F00020789A4E80074FF001094FF0000839D549
:10130000686810F00C0F07D06868C0F381000228ED
:1013100009D16868C00306D42868800714D52069FD
:10132000012808D110E02069B0B1C6F80090FFF79D
:1013300043FB074605E00AE1FFF73EFBC01B02281E
:10134000C4D828688007F7D52868616920F0F800BC
:1013500040EAC10028600DE0C6F80080FFF72CFBD2
:10136000074604E0FFF728FBC01B022823D82868A3
:101370008007F7D4207800072CD57948A169D9B126
:10138000C0F80090FFF718FB074604E0FFF714FBD6
:10139000C01B02280FD8686A8007F7D571484FF440
:1013A000FA510068B0FBF1F0009000BF0098411EB8
:1013B0000091FAD20EE080E0C0F80080FFF7FCFA5E
:1013C000074604E0FFF7F8FAC01B022875D8686AE0
:1013D0008007F7D42078400760D5E8690027C0006F
:1013E00008D4E86940F08050E861E869012700F01E
:1013F000805000905C480168C90513D40168834699
:1014000041F480710160FFF7D7FA824606E000BF21
:10141000FFF7D2FAA0EB0A0064284ED8DBF80000F0
:10142000C005F5D5E06801280AD008B1052813D019
:10143000286A20F001002862286A20F0040002E0F7
:10144000286A40F001002862E06841F2883B98B1C8
:10145000FFF7B2FA82460BE0286A40F004002862E7
:10146000EEE700BFFFF7A8FAA0EB0A0159455AD8EA
:10147000286A8007F6D50CE0FFF79EFA824605E061
:10148000FFF79AFAA0EB0A0159454CD8286A800761
:10149000F6D41FB1E86920F08050E861E06988B3B4
:1014A0006968C1F38101022944D00228C6F860802E
:1014B00004D0FFF781FA044638E034E0FFF77CFA05
:1014C000074604E0FFF778FAC01B02282BD82868EB
:1014D0008001F7D4206AB0F5803F05D16868A16823
:1014E00020F4003008436860D4E9080108436968C3
:1014F00021F4741108436860C6F86090FFF75CFA45
:10150000044606E025E000BFFFF756FA001B02285C
:1015100009D828688001F7D51BE000BFFFF74CFA17
:10152000001B022802D90320BDE8F88F286880013B
:10153000F4D40EE00128F7D06868226A00F4803104
:10154000914204D1616A00F47010884201D00120F8
:10155000EAE70020E8E700000010024000004242F5
:1015600080044242600000200070004010B5401E20
:10157000B0F1807F01D3012010BD4FF0E024606105
:101580000F21601700F0AFFB0020A0610720206151
:10159000002010BD70B5040004D094F83900002577
:1015A00010B106E0012070BD84F83850204600F0EC
:1015B00023F8242084F839002068C16821F4005100
:1015C000C160204600F032FB2068016921F490419F
:1015D00001612068416921F02A0141612068C168E8
:1015E00041F40051C160E563202084F8390084F89B
:1015F0003A00002070BD000030B585B00024009492
:1016000001940294039400681449884224D1144838
:10161000816941F480418161816901F480410491D3
:10162000816941F00401816180690E4D00F0040080
:1016300004904FF40070009002200190032003906A
:1016400069462846FFF7C2F82815CDE90004694627
:1016500028460294FFF7BAF805B030BD00380140C3
:101660000010024000080140FEE701684A69D243C9
:1016700052050FD46FF480624A61002140F8301F98
:10168000202242738173026942F0040202610173F5
:1016900001207047002070472DE9F84F044600688C
:1016A00089460B9D01689846174641F480610160A8
:1016B0002068016841F48071016000954FF0011AC3
:1016C0000022514620460A9B00F0CAF8002853D158
:1016D000216809F0FE0008610AF1010B2B4659460A
:1016E00020460A9A00F0F0F8F0BB20684169806952
:1016F00000902A4620460A9900F064F940B1206C17
:10170000042839D12068016841F40071016033E098
:10171000FEB2B8F1010F09D02168380A08612A46E3
:1017200020460A9900F04EF90028E8D120680661A9
:101730002A4620460A9900F045F90028DFD12068A2
:10174000016841F4807101600095002251462046F5
:101750000A9B00F085F838B9216809F0FF0040F0D5
:10176000010008612B4600E006E0594620460A9A2F
:1017700000F0AAF8002800D00120BDE8F88F000092
:101780002DE9F843044600680D46DDE90897016835
:101790009846164641F4807101604B4600224FF096
:1017A00001112046009700F05BF8E0B9216805F0D0
:1017B000FE0008613B464A461549204600F084F881
:1017C00088B920684169806900903A4649462046B8
:1017D00000F0F8F850B1206C042804D120680168AA
:1017E00041F4007101600120BDE8F883F5B2B8F161
:1017F000010F09D02168300A08613A46494620465F
:1018000000F0E0F80028E6D1206805610020EBE751
:101810000200010070B516460D4604460DE0204654
:10182000FFF723FF08B1012070BD681C05D0FFF74A
:10183000C3F8801BA84207D835B120684069C0436F
:101840004007ECD4002070BD002044F8300F202168
:101850006173A073216941F0200121612073E2E7E7
:101860002DE9F0471E4690460D460446C1F3074752
:10187000DDF8209008E0701C06D0FFF79DF8A0EB83
:101880000900B0420FD876B12068012F18D08069C6
:1018900025EA00000004000C14D000214145EAD0E4
:1018A0000020BDE8F087002044F8300F202161734C
:1018B000A073216941F02001216120730120F0E72C
:1018C0004069E5E70121E9E72DE9F0479A469146AD
:1018D0000E46044600254FF02008C1F3074725E0D7
:1018E00020684069C043400514D42068016841F471
:1018F0000071016021686FF480604861256384F89D
:101900003D8084F83E50206C40F00400206484F850
:101910003C501FE0B9F1FF3F08D0FFF74DF8A0EBB6
:101920000A0149450CD8B9F1000F09D02068012FF0
:1019300013D0806926EA00000004000C0BD0CFE72A
:1019400044F8305F84F80D80A573206940F02000D2
:10195000206125730120BDE8F0874069EAE72DE9A1
:10196000F041002590460E460446202717E04069C6
:10197000C043C0060CD454F8301B6FF0100048610F
:1019800044F810596777A577206A2062257717E019
:10199000FFF712F8A0EB0800B04208D83EB120686B
:1019A0004169C9434906E2D40020BDE8F08144F80A
:1019B000305F6773A573206940F0200020612573B4
:1019C0000120F2E770B516460D4604460DE02046AC
:1019D000FFF74BFE08B1012070BD681C05D0FEF773
:1019E000EBFF801BA84207D835B120684069C0438F
:1019F0000006ECD4002070BD002044F8300F2021F8
:101A00006173A073216941F0200121612073E2E735
:101A10003EB532248DE81C000A460123D021FFF791
:101A20008BF83EBD1CB50446002339B101220129C3
:101A300007D0022908D003290FD10AE08DF804301D
:101A400004E08DF8043006E08DF804208DF80030B5
:101A500003E08DF804208DF8002003236A461C2142
:101A600000F02EF8042301AA1C21204600F028F8DB
:101A70001CBD1CB50446002339B10122012907D041
:101A8000022908D003290FD10AE08DF8043004E0C0
:101A90008DF8043006E08DF804208DF8003003E066
:101AA0008DF804208DF8002003236A461B2100F0E6
:101AB00007F8042301AA1B21204600F001F81CBDF1
:101AC000F8B51E4617460C46054601236A46FFF741
:101AD0009FFF38780122B24000289DF8000001D015
:101AE000024301E020EA02028DF8002001236A4649
:101AF0002146284600F001F8F8BD3EB532248DE8B5
:101B00001C000A460123D021FFF726F93EBD000044
:101B100070B586B000241C4800940194029403948C
:101B2000816941F010018161816901F01001049126
:101B3000816941F020018161816901F020010491F6
:101B4000816941F004018161816901F0040104911E
:101B5000816941F00801816180690C4E00F0080044
:101B60004FF400550490002229463046FEF71EFF30
:101B700001200095CDE9010402200390694630461A
:101B8000FEF724FE06B070BD0010024000100140B8
:101B9000FEE7704770477047FFF7D4B930B58FB094
:101BA00028216846FEF7D5FA14210AA8FEF7D1FAD3
:101BB0000120010442048DE8070004900024CDE9CF
:101BC0000814022507956846FFF740FB0F200A908E
:101BD000CDE90B540D9400210AA80E94FFF74AFAA0
:101BE0000FB030BD0D48016841F00101016041684E
:101BF0000B4A1140416001680A4A114001600168C6
:101C000021F480210160416821F4FE0141604FF41C
:101C10001F0181600449C003086070470010024042
:101C20000000FFF8FFFFF6FE08ED00E02DE9F041AF
:101C3000044600680169E26821F4405111430161E2
:101C40002169A0680843616908432168CA6841F2B4
:101C50000C639A430243CA6020684169A26921F477
:101C60004071114341611E49206864253226884233
:101C700002D1FFF7A5FA01E0FFF792FA00EBC001ED
:101C800001EB001160686FF018078000B1FBF0F203
:101C9000B2FBF5F2B1FBF0F37A4303EB8202B1FB46
:101CA000F0F306EB0212B2FBF5F2B3FBF5F302F030
:101CB000F00202EB0312B1FBF0F3B1FBF0F0B0FB6A
:101CC000F5F0784303EB800006EB0010B0FBF5F075
:101CD000216800F00F0010448860BDE8F08100002A
:101CE00000380140FEE70907090E002804DB00F177
:101CF000E02080F80014704700F00F0000F1E020B1
:101D000080F8141D704702E008C8121F08C1002A9D
:101D1000FAD170477047002001E001C1121F002A6C
:101D2000FBD170472DE9F04F87B0FFF713F9FFF7AC
:101D300035FFFFF7EDFEAF48416941F00101416118
:101D40004069002200F00100009011461020FFF7CA
:101D50005FF91020FFF74EF9002211461120FFF71E
:101D600057F91120FFF746F9A448A3490024016060
:101D7000A349C0E901144FF48041C0E90341446123
:101D80008461C4610462FEF71DFE9C489D49543085
:101D900001604FF4E131C0E901140C21C460C0E9D5
:101DA00004418461C461FFF7F5FB03219348FFF709
:101DB00039FE01219148FFF75CFE01208DF80C00EF
:101DC000034603AA03218D48FFF77AFE01238E4ABA
:101DD00075218A48FFF71CFE8B4C2078712803D0B0
:101DE00007B00120BDE8F08FDFF81C92DFF81CB2CD
:101DF00009F1480909F1060A834A062348323B21C2
:101E00007E48FFF705FEB9F80010B9F8040049BA9A
:101E1000B9F80220383152BA40BA09B2103A5638ED
:101E2000618016B205B2A680E5800846FEF7D6FAB4
:101E300080F00040FEF7ECFADFF8D4815F465A46A6
:101E40004346FEF759FAFEF7F6FA20633046FEF7EE
:101E5000C5FA80F00040FEF7DBFA3A464346FEF74B
:101E60004BFAFEF7E8FA60632846FEF7B7FA80F00F
:101E70000040FEF7CDFA3A464346FEF73DFAFEF73C
:101E8000DAFA614AA06306234E3243215B48FFF72A
:101E9000BFFDBAF80010BAF8040049BABAF8022037
:101EA0007E3152BA40BA09B2543A0F30218116B28B
:101EB00005B26681A5810846FEF799FA554FDFF80D
:101EC00058813A464346FEF717FAFEF7B4FAE06344
:101ED0003046FEF78CFA3A464346FEF70DFAFEF717
:101EE000AAFA20642846FEF782FA3A464346FEF7ED
:101EF00003FAFEF7A0FA444A606402230E3241213D
:101F00003E48FFF785FD40480E30008840BA2082E9
:101F10006069451C6561002867DD2846FEF75EFAAA
:101F20000646B4F90200FEF759FA0746681EFEF7A6
:101F300055FA0546A169FEF76FF93946FEF714F91F
:101F40003146FEF79BF9A061B4F90400FEF746FAAA
:101F500007462846E169FEF75FF93946FEF704F9BE
:101F60003146FEF78BF9E061B4F90600FEF736FA68
:101F700007462846216AFEF74FF93946FEF7F4F87E
:101F80003146FEF77BF92062B4F90800FEF726FA25
:101F900007462846616AFEF73FF93946FEF7E4F83E
:101FA0003146FEF76BF96062B4F90A00FEF716FAE3
:101FB00007462846A16AFEF72FF93946FEF7D4F8FE
:101FC0003146FEF75BF9A0623746B4F90C00FEF724
:101FD00005FA06462846E16AFEF71EF93146FEF785
:101FE000C3F83946FEF74AF9E0626420FEF7DCFBED
:101FF00002E700000010024000540040640000208E
:10200000801A06000038014000000020D87577B61D
:10201000AA99733F79BBF3FE1E407F3F000000008A
:102020000000000001020304060708090000000088
:102030000102030454200008000000206400000096
:10204000061D0008B8200008640000201C050000E0
:10205000161D000800000000000000000000000045
:102060000000000000000000000000000000000070
:102070000000000000000000000000000000000060
:102080000000000000000000000000000000000050
:102090000000000000000000000000000000000040
:1020A000000000000000000001000000100000001F
:0820B000000000000024F40010
:04000005080000ED02
:00000001FF
