:020000040800F2
:1000000030050020010100080F0F0008890E0008CC
:100010000D0F00086D0100086110000800000000CD
:10002000000000000000000000000000130F0008A6
:100030008901000800000000110F0008150F0008DA
:100040001B0100081B0100081B0100081B01000820
:100050001B0100081B0100081B0100081B01000810
:100060001B0100081B0100081B0100081B01000800
:100070001B0100081B0100081B0100081B010008F0
:10008000710100087D0100081B0100081B01000828
:100090001B0100081B0100081B0100081B010008D0
:1000A0001B0100081B0100081B0100081B010008C0
:1000B0001B0100081B0100081B0100081B010008B0
:1000C0001B0100081B0100081B0100081B010008A0
:1000D0001B0100081B0100081B0100081B01000890
:1000E0001B0100081B0100081B010008DFF80CD0F1
:1000F00000F02AF800480047A11000083005002051
:100100000648804706480047FEE7FEE7FEE7FEE7B1
:10011000FEE7FEE7FEE7FEE7FEE7FEE7610F000809
:10012000ED000008D2B201E000F8012B491EFBD21D
:1001300070470022F6E710B513460A4604461946F2
:10014000FFF7F0FF204610BD064C074D06E0E068C3
:1001500040F0010394E8070098471034AC42F6D30E
:10016000FFF7C8FF5011000870110008FEE70000FB
:10017000014800F00BB80000A4000020014800F086
:1001800005B80000E8000020704770472DE9F05FD7
:10019000C16B0C6801680B68D0F840C0042202FAF9
:1001A0000CF2494DDFF824A1494E4A4FDFF828B13F
:1001B000DFF828E122422CD05A072AD50A68920695
:1001C00003D40A6822F004020A600168A94201D13E
:1001D000042219E0514501D1402215E0B14202D17B
:1001E0004FF4806210E0B94202D14FF480420BE03C
:1001F000594502D14FF4802206E0714502D14FF4F7
:10020000800201E04FF080622F4908394A60C16ADC
:100210003BE04FF0020808FA0CF818EA040F4FF020
:1002200000094FF0010235D05FEA837832D50B68C0
:100230009B0605D40B6823F00A030B6080F821208D
:100240000168A94201D1022219E0514501D12022C1
:1002500015E0B14202D14FF4007210E0B94202D170
:100260004FF400520BE0594502D14FF4003206E042
:10027000714502D14FF4001201E04FF000721249B3
:1002800008394A6080F82090816A00291AD0BDE8B8
:10029000F05F0847082505FA0CF5254212D01B0728
:1002A00010D50B6823F00E030B6090F84010C36B61
:1002B00002FA01F15960826380F8212080F82090D1
:1002C000016BE2E7BDE8F09F080002401C0002401D
:1002D0003000024044000240580002406C000240DE
:1002E00030B528B308C8134914221944B1FBF2F100
:1002F0008900C16310498163022141771A6843F67E
:10030000F0718A43D0E900142143D0E902452C431F
:1003100021430469214344692143846921431143F2
:10032000196000214163012242770177084630BD00
:10033000012030BDF8FFFDBF000002402DE9F84F5D
:10034000DFF8B891002409F1040A0AF1040B2346EE
:100350000F270BF1040EC9E00125A5402A40AA424F
:100360007DD1674ED1F804C0ACEB0608B44532D05D
:1003700014DCBCF1030F3AD009DCBCF1000F2AD029
:10038000BCF1010F1CD0BCF1020F31D11DE0BCF15A
:10039000110F17D0BCF1120F2AD119E0B8F5881F40
:1003A00019D006DCB8F5803F15D0B8F5801F1FD1F5
:1003B00011E0B8F5001F0ED0B8F5041F18D10AE0FF
:1003C000CB6815E0CB681B1D12E0CB6808330FE04B
:1003D000CB680C330CE08B682BB1012B4FF008037A
:1003E00003D0456104E0042302E0056100E000233E
:1003F000FF2A01D8064601E000F104064FEA840511
:1004000001D9A5F12005D6F8008007FA05FC28EAF5
:100410000C0803FA05F548EA0508C6F800804D689F
:10042000ED0062D5374DAE6946F00106AE61AD69AB
:1004300024F0030605F001050095334D06EB050C8D
:10044000DCF80850A607360F07FA06F825EA080573
:10045000DFF8B880404503D14FF0000817E044E0D2
:10046000DFF8AC80404502D14FF001080FE0DFF823
:10047000A480404502D14FF0020808E0DFF89880E0
:10048000404502D14FF0030801E04FF0040808FA9C
:1004900006F848EA0508CCF808804D68D9F80060ED
:1004A000ED034D4601D5164300E096432E604D689E
:1004B000DAF80060AD03554601D5164300E09643D7
:1004C0002E604D68DBF80060ED025D4601D51643F5
:1004D00000E096432E604D68DEF80060AD02754680
:1004E00001D5164300E096432E60641C0D682A4631
:1004F000E5407FF431AFBDE8F88F00000004014013
:1005000000001110001002400000014000080140EE
:10051000000C014000100140001401400AB10161CB
:1005200070470904FBE7000001488068704700003D
:100530000000002070B504001BD094F83D00002599
:1005400020B984F83C50204600F0AEF8242084F80E
:100550003D002068016821F00101016000F030FADF
:100560004D4A6168914201D84C4900E04C498842AB
:1005700001D2012070BD4B492368B0FBF1F15E68E8
:1005800026F03F060E435E606368934206D94FF43F
:10059000967359434FF47A73B1FBF3F12368491C06
:1005A0001E6A26F03F06314319626168914210D8F5
:1005B0004900401EB0FBF1F2521CC2F30B02042AA8
:1005C00001D2042022E0B0FBF1F0401CC0F30B008C
:1005D0001CE0A368F3B301EBC10202EB0116421E5B
:1005E000B2FBF6F2521C42F48042120549D093B39A
:1005F00001EBC10202EB0111401EB0FBF1F0401C07
:10060000C0F30B0040F4804040F400402168CA6908
:100610004CF6FF739A431043C861D4E907010843BD
:1006200021680A6822F0C00210430860D4E903017F
:1006300001432068826848F2FF339A431143816086
:10064000D4E9050108432168CA6822F0FF0210437B
:10065000C86001E00EE016E02068016841F0010189
:1006600001602564202084F83D00256384F83E5015
:10067000002070BD01EB4106421EB2FBF6F2521C97
:10068000B3E70120C2E701EB4101401EB0FBF1F0EE
:10069000401CC0F30B00B7E7A086010080841E0059
:1006A00000093D0040420F00F0B585B00024064629
:1006B000009401940294039400682449884242D132
:1006C000234DA86940F00800A861A869694600F0B8
:1006D00008000490C0200090122001900320039095
:1006E0001C48FFF72BFEE86940F40010E861E86958
:1006F0001A4D00F4001004901748802701C51020FF
:1007000091C5400145F810098000C5E9050413486A
:10071000EC61FFF7E5FD08B1FFF737FD75636E6229
:100720000D480F4D1430C5E90004C5E902472C619E
:100730006C61AC612846EC61FFF7D2FD08B1FFF7B0
:1007400024FDB5636E6205B0F0BD000000540040AA
:1007500000100240000C01406C000240A400002088
:10076000E8000020024881680278114481607047E7
:1007700000000020074810B5016841F01001016039
:10078000032000F075F8002000F006F800F024F8CF
:10079000002010BD0020024070B50D4D04464FF4FE
:1007A0007A712878B1FBF0F00A490968B1FBF0F0E2
:1007B00000F0ECFA48B9102C07D200222146501E56
:1007C00000F036F800206C6070BD012070BD0000A4
:1007D000000000200C0000200C4808B5816941F0A1
:1007E00001018161816901F001010091C16941F05C
:1007F0008051C161C06900F0805000900448416898
:1008000021F0E06141F00071416008BD001002403C
:1008100000000140002809DB00F01F020121914087
:100820004009800000F1E020C0F80011704700008E
:10083000F0B40E4B1B680C46C3F30223C3F107054B
:10084000042D00D90425191D072901D2002300E039
:10085000DB1E012606FA05F1491E214099409E4003
:10086000761E16403143F0BC00F0FBBB0CED00E0FF
:10087000064900F0070208684FF6FF03184040EAF7
:100880000220034A10430860704700000CED00E0AE
:100890000000FA052DE9F0470F46050061D0434EF0
:1008A000306800F00700B84209D2306820F0070035
:1008B00038433060306800F00700B84251D12868F2
:1008C0003B4C810712D5400703D5606840F4E060D7
:1008D00060602878000703D5606840F4605060606D
:1008E0006068A96820F0F000084360602878C007BD
:1008F00028D06868012810D02168022810D0890704
:1009000000292EDA616821F0030101436160FFF7DD
:100910000BFE804641F288390DE021688903EFE73C
:100920008901EDE7FFF700FEA0EB0801494502D978
:100930000320BDE8F0876068696800F00C00B0EB48
:10094000810FEFD1306800F00700B8420BD9306852
:1009500020F0070038433060306800F00700B842EC
:1009600001D00120E5E72878400705D56068E968EF
:1009700020F4E060084360602878000706D56068CE
:10098000296920F4605040EAC100606000F038F846
:100990006168084AC1F30311515CC8400649086008
:1009A00006480068FFF7F8FE0020C2E7002002407A
:1009B00000100240381100080C0000200400002044
:1009C0000448054900684968044AC1F30221515CA2
:1009D000C84070470C000020001002404811000879
:1009E0000448054900684968044AC1F3C221515CC2
:1009F000C84070470C000020001002404811000859
:100A000012A185B00FC98DE80F0014A0144A006828
:100A100004905168134801F00C03042B10D0082BEC
:100A20000ED1C1F38343C9031DF803000AD55168F1
:100A300004AAC1F34041515C0A4A5043B0FBF1F0B3
:100A400005B0704708494843FAE70000020304056F
:100A5000060708090A0B0C0D0E0F1010010200000A
:100A60000010024000127A0000093D002DE9F84F05
:100A7000040070D02078C04DC00749D06868C0F32A
:100A80008100012807D06868C0F38100022809D1DD
:100A90006868C00306D52868800339D560680028D7
:100AA000E7D035E06068B0F5803F0BD010B1B0F50D
:100AB000A02F11D0286820F480302860286820F406
:100AC000802002E0286840F480302860606890B19F
:100AD000FFF72AFD06460AE0286840F480202860D7
:100AE000F0E700BFFFF720FD801B642873D828685B
:100AF0008003F7D50CE0FFF717FD064605E000BFC1
:100B0000FFF712FD801B6428F0D828688003F7D413
:100B100020789A4E80074FF001094FF0000839D530
:100B2000686810F00C0F07D06868C0F381000228D5
:100B300009D16868C00306D42868800714D52069E5
:100B4000012808D110E02069B0B1C6F80090FFF785
:100B5000EBFC074605E00AE1FFF7E6FCC01B0228B4
:100B6000C4D828688007F7D52868616920F0F800A4
:100B700040EAC10028600DE0C6F80080FFF7D4FC11
:100B8000074604E0FFF7D0FCC01B022823D82868E2
:100B90008007F7D4207800072CD57948A169D9B10E
:100BA000C0F80090FFF7C0FC074604E0FFF7BCFC6C
:100BB000C01B02280FD8686A8007F7D571484FF428
:100BC000FA510068B0FBF1F0009000BF0098411EA0
:100BD0000091FAD20EE080E0C0F80080FFF7A4FC9C
:100BE000074604E0FFF7A0FCC01B022875D8686A1E
:100BF0008007F7D42078400760D5E8690027C00057
:100C000008D4E86940F08050E861E869012700F005
:100C1000805000905C480168C90513D40168834680
:100C200041F480710160FFF77FFC824606E000BF5F
:100C3000FFF77AFCA0EB0A0064284ED8DBF800002E
:100C4000C005F5D5E06801280AD008B1052813D001
:100C5000286A20F001002862286A20F0040002E0DF
:100C6000286A40F001002862E06841F2883B98B1B0
:100C7000FFF75AFC82460BE0286A40F00400286225
:100C8000EEE700BFFFF750FCA0EB0A0159455AD828
:100C9000286A8007F6D50CE0FFF746FC824605E09F
:100CA000FFF742FCA0EB0A0159454CD8286A80079F
:100CB000F6D41FB1E86920F08050E861E06988B39C
:100CC0006968C1F38101022944D00228C6F8608016
:100CD00004D0FFF729FC044638E034E0FFF724FC99
:100CE000074604E0FFF720FCC01B02282BD8286829
:100CF0008001F7D4206AB0F5803F05D16868A1680B
:100D000020F4003008436860D4E9080108436968AA
:100D100021F4741108436860C6F86090FFF704FC82
:100D2000044606E025E000BFFFF7FEFB001B02289B
:100D300009D828688001F7D51BE000BFFFF7F4FB56
:100D4000001B022802D90320BDE8F88F2868800123
:100D5000F4D40EE00128F7D06868226A00F48031EC
:100D6000914204D1616A00F47010884201D00120E0
:100D7000EAE70020E8E700000010024000004242DD
:100D8000800442420C0000200070004010B5401E5C
:100D9000B0F1807F01D3012010BD4FF0E0246061ED
:100DA0000F21601700F05DF90020A061072020618D
:100DB000002010BD70B5040004D094F8390000255F
:100DC00010B106E0012070BD84F83850204600F0D4
:100DD00023F8242084F839002068C16821F40051E8
:100DE000C160204600F0E0F82068016921F49041DC
:100DF00001612068416921F02A0141612068C168D0
:100E000041F40051C160E563202084F8390084F882
:100E10003A00002070BD000030B585B00024009479
:100E200001940294039400681449884224D1144820
:100E3000816941F480418161816901F480410491BB
:100E4000816941F00401816180690E4D00F0040068
:100E500004904FF400700090022001900320039052
:100E600069462846FFF76AFA2815CDE90004694665
:100E700028460294FFF762FA05B030BD0038014001
:100E80000010024000080140FEE7000070B586B087
:100E900000241C480094019402940394816941F059
:100EA00010018161816901F010010491816941F0B3
:100EB00020018161816901F020010491816941F083
:100EC00004018161816901F004010491816941F0AB
:100ED0000801816180690C4E00F008004FF4005554
:100EE0000490002229463046FFF718FB01200095A8
:100EF000CDE901040220039069463046FFF71EFA4F
:100F000006B070BD0010024000100140FEE77047BF
:100F100070477047FFF726BC30B58FB02821684670
:100F2000FFF707F914210AA8FFF703F901200104CC
:100F300042048DE8070004900024CDE9081402253E
:100F400007956846FFF792FD0F200A90CDE90B54F4
:100F50000D9400210AA80E94FFF79CFC0FB030BD41
:100F60000D48016841F00101016041680B4A1140E0
:100F7000416001680A4A11400160016821F4802142
:100F80000160416821F4FE0141604FF41F0181605E
:100F90000449C00308607047001002400000FFF8D9
:100FA000FFFFF6FE08ED00E02DE9F0410446006881
:100FB0000169E26821F44051114301612169A0688F
:100FC0000843616908432168CA6841F20C639A4387
:100FD0000243CA6020684169A26921F4407111434B
:100FE00041611E49206864253226884202D1FFF7FC
:100FF000F7FC01E0FFF7E4FC00EBC00101EB00119E
:1010000060686FF018078000B1FBF0F2B2FBF5F2F8
:10101000B1FBF0F37A4303EB8202B1FBF0F306EB92
:101020000212B2FBF5F2B3FBF5F302F0F00202EBB1
:101030000312B1FBF0F3B1FBF0F0B0FBF5F0784335
:1010400003EB800006EB0010B0FBF5F0216800F028
:101050000F0010448860BDE8F081000000380140B6
:10106000FEE70907090E002804DB00F1E02080F804
:101070000014704700F00F0000F1E02080F8141D0C
:10108000704702E008C8121F08C1002AFAD1704751
:101090007047002001E001C1121F002AFBD17047F8
:1010A00008B5FFF767FBFFF737FFFFF7EFFE1D48B7
:1010B000416941F0010141614069002200F00100F5
:1010C000009011461020FFF7B3FB1020FFF7A2FBA2
:1010D000002211461120FFF7ABFB1120FFF79AFB0E
:1010E00012481149002401601149C0E901144FF46C
:1010F0008041C0E9034144618461C4610462FFF737
:1011000019FA0A480B49543001604FF4E131C0E943
:1011100001140C21C460C0E904418461C461FFF77B
:1011200049FEFEE70010024000540040100000207D
:10113000801A060000380140000000000000000096
:10114000010203040607080900000000010203046D
:10115000701100080000002010000000821000083C
:1011600080110008100000202005000092100008E7
:101170000100000010000000000000000024F40046
:04000005080000ED02
:00000001FF
